:020000040800F2
:1000000000C00020314B00082B050008D502000875
:100010002D0500082F05000831050008000000002C
:100020000000000000000000000000003305000890
:100030003505000800000000530200084148000890
:10004000794B0008794B0008794B0008794B000880
:10005000794B0008794B0008794B0008794B000870
:10006000794B0008794B0008794B0008794B000860
:10007000794B0008794B0008F94A0008094B000841
:10008000794B0008794B0008794B0008794B000840
:10009000794B0008794B0008794B0008794B000830
:1000A000794B0008794B0008794B0008794B000820
:1000B000794B0008794B0008794B0008794B000810
:1000C000794B0008794B0008794B0008794B000800
:1000D000794B0008194B0008794B0008794B000850
:1000E000794B0008794B0008794B0008794B0008E0
:1000F000794B0008794B0008794B0008794B0008D0
:10010000794B0008794B0008794B0008794B0008BF
:10011000794B0008794B0008794B0008794B0008AF
:10012000794B0008794B0008794B0008794B00089F
:1001300000000000000000000000000000000000BF
:1001400000000000000000000000000000000000AF
:10015000000000000000000000000000000000009F
:10016000000000000000000000000000000000008F
:10017000000000000000000000000000000000007F
:10018000000000000000000000000000000000006F
:10019000000000000000000000000000000000005F
:1001A000000000000000000000000000000000004F
:1001B000000000000000000000000000000000003F
:1001C000000000000000000000000000000000002F
:1001D000000000000000000000000000000000001F
:0401E0005FF8E0F1F3
:1001E40010B5054C237833B9044B13B10448AFF36D
:1001F40000800123237010BDB40000200000000023
:10020400D44B000808B5034B1BB103490348AFF3B3
:10021400008008BD00000000B8000020D44B000896
:10022400EFF3108072B6704780F310887047374A36
:100234001368012B04D04FF001031360344A10609B
:10024400344A116034484FF0805101607047EFF335
:10025400108272B62D48016891B14FF0000101601F
:100264002B48016829B1EFF3098121E9F00F0068F7
:100274000160284909680968B1E8F00F81F3098829
:1002840082F310884EF0040E70472249086020491A
:100294004FF0000008601D494FF0010008601F483E
:1002A4001F49D0F8002041EA020101601A484FF0CA
:1002B400805101601B480068006800BF80F3088813
:1002C40061B662B6BFF34F8FBFF36F8F704700BF45
:1002D400EFF308801EF0040F01D0EFF3098020E94A
:1002E400F00F40F804ED1EF0040F02D080F30988EB
:1002F40001E080F3088800B504F0A4F95DF804EB8C
:100304004EF0040E7047EFF305807047B0140020E0
:10031400A8140020AC14002004ED00E020ED00E05F
:100324000000FFFF08ED00E0034613F8012B002A4C
:10033400FBD1181A0138704770B588B000230493B4
:1003440005930693079303F1804303F504339A69F5
:1003540042F010029A619A6902F010020192019A25
:100364009A6942F004029A619A6902F004020292C4
:10037400029A9A6942F020029A619B6903F0200371
:100384000393039B4FF40053049301240594032324
:10039400079304A90C4801F0CDFA4FF48076049633
:1003A40006940A4D04A9284601F0C4FA04230493D0
:1003B400069404A9064801F0BDFA224631462846AF
:1003C40001F0D8FB08B070BD0010014000080140E6
:1003D4000014014000B583B000F056FF4FF4E01064
:1003E40004F00DFA0E4B9A6942F020029A619A6960
:1003F40002F020020092009A9A6942F004029A6183
:100404009B6903F004030193019B04F0FFF9FFF7D8
:1004140093FF04F04DFA04F077FA03B05DF804FB9F
:100424000010024000B583B0042300934FF400731E
:1004340000220D490D4804F08CF90D4B186008B1E9
:1004440004F092F9042300934FF400730022094945
:10045400094804F07EF9094B186008B104F084F9E6
:1004640003B05DF804FB00BFBD040008EC4B0008BA
:10047400D0100020ED040008F84B0008D410002030
:1004840008B50C49A1F5805002F0FCFCFFF7C8FE4A
:1004940002F0B8FC04F0A0F803F058F903F02AFBCA
:1004A40004F0A8F801F08EFFFFF7BCFF03F0D6F9C3
:1004B40008BD00BFD010002008B50A4C002204215A
:1004C400204601F057FB40F2DC5004F052F90122BF
:1004D4000421204601F04EFB40F2DC5004F049F9BF
:1004E400EBE700BF0014014038B50125002406E005
:1004F400013CA4B20AE00025204604F0FFF90A20DA
:1005040004F037F9002DF3D00134A4B2B4F5487FD8
:10051400F1D8002CF0D10125EEE708B5FFF75AFF1A
:10052400FFF7AEFFFEE7FEE7FEE7FEE7FEE77047F4
:10053400704770471F4B5B6803F00C03042B14D007
:10054400082B16D01BB11C4B1C4A1A6002E01A4B34
:100554001A4A1A60174B5B68C3F30313184AD15C39
:10056400154A1368CB4013607047134B134A1A6043
:10057400F0E7104A53685268C3F38343023312F41A
:10058400803F05D10F4A02FB03F30B4A1360E1E7F6
:10059400084A526812F4003F05D00A4A02FB03F3EA
:1005A400054A1360D6E7054A02FB03F3024A1360C7
:1005B400D0E700BF001002400000002000127A00C3
:1005C400044C000800093D0082B00E4B9A6942F0C9
:1005D40001029A619A6902F001020092009ADA69B2
:1005E40042F08052DA61DB6903F080530193019B8E
:1005F400054A536823F0E06343F00073536002B08C
:10060400704700BF001002400000014030B4036A8C
:1006140023F001030362036A4268846924F07304CB
:100624000D682C4323F0020C8B6843EA0C03104D35
:10063400A84203D005F50065A84205D123F00803BC
:10064400CD682B4323F00403094DA84203D005F5DC
:100654000065A84205D122F440724D692A438D6990
:100664002A43426084614A684263036230BC704733
:10067400002C014030B4036A23F480730362036ADC
:100684004268C46924F0730C0C6844EA0C0523F432
:1006940000738C6843EA0423114CA04203D004F590
:1006A4000064A04206D123F40063CC6843EA042327
:1006B40023F480630A4CA04203D004F50064A042F2
:1006C40007D122F440524C6942EA04128C6942EA8E
:1006D40004124260C5614A68C263036230BC704759
:1006E400002C014030B4036A23F480530362036A8C
:1006F4004468C26922F4E6420D6842EA052223F402
:1007040000538D6843EA0533094DA84203D005F52B
:100714000065A84204D124F480444D6944EA851458
:100724004460C2614A680264036230BC704700BF1F
:10073400002C01400368244A904212D002F5006262
:1007440090420ED0B0F1804F0BD0A2F59832904277
:1007540007D002F58062904203D002F58062904295
:1007640003D123F070034A681343174A904212D00E
:1007740002F5006290420ED0B0F1804F0BD0A2F58A
:100784009832904207D002F58062904203D002F57D
:100794008062904203D123F44073CA68134323F068
:1007A40080034A69134303608B68C3620B688362E6
:1007B400054B984203D003F50063984201D10B69BD
:1007C4000363012343617047002C014040B310B51B
:1007D400044690F83D30F3B1022384F83D302146BD
:1007E40051F8040BFFF7A6FF012384F8463084F880
:1007F4003E3084F83F3084F8403084F8413084F847
:10080400423084F8433084F8443084F8453084F826
:100814003D30002010BD80F83C3004F019F8DBE7CF
:100824000120704730B4036A23F010030362036AA3
:100834004468826922F4E6420D6842EA052223F004
:1008440020038D6843EA0513114DA84203D005F532
:100854000065A84206D123F08003CD6843EA05135E
:1008640023F040030A4DA84203D005F50065A842D1
:1008740007D124F440644D6944EA85048D6944EA4F
:100884008504446082614A688263036230BC7047B5
:10089400002C014038B590F83C30012B60D0044660
:1008A4000D46012380F83C300C2A1AD8DFE802F008
:1008B400071919191D191919311919194400006852
:1008C400FFF7A4FE2268936943F00803936122684A
:1008D400936923F0040393612268936929690B43A4
:1008E4009361002084F83C0038BD0068FFF79AFF4C
:1008F4002268936943F4006393612268936923F443
:100904008063936122689369296943EA01239361AF
:10091400E7E70068FFF7AEFE2268D36943F00803F7
:10092400D3612268D36923F00403D3612268D369B5
:1009340029690B43D361D4E70068FFF7D3FE22682B
:10094400D36943F40063D3612268D36923F48063D9
:10095400D3612268D369296943EA0123D361C0E7DB
:100964000220C1E701F01F01012303FA01FC036A1D
:1009740023EA0C030362036A02FA01F10B430362E4
:100984007047000010B50446084600293AD194F88F
:100994003E30DBB2013B18BF0123002B66D1002897
:1009A40049D1022384F83E30012201462068FFF732
:1009B400D9FF23682F4A934203D002F50062934281
:1009C40003D15A6C42F400425A642368294A934280
:1009D40041D002F5006293423DD0B3F1804F3AD04A
:1009E400A2F59832934236D002F58062934232D017
:1009F40002F5806293422ED01A6842F001021A6016
:100A0400002032E0042908D008290DD094F84130A0
:100A1400DBB2013B18BF0123BFE794F83F30DBB2E0
:100A2400013B18BF0123B8E794F84030DBB2013B27
:100A340018BF0123B1E7042805D0082807D00223F2
:100A440084F84130B0E7022384F83F30ACE7022356
:100A540084F84030A8E79A6802F00702062A07D013
:100A64001A6842F001021A60002010BD0120FCE760
:100A74000020FAE7002C01400268D36823F0C00389
:100A8400D360202380F83D3070470268D36823F494
:100A94009073D3600268536923F001035361036BBD
:100AA400012B05D0202380F83E30002303637047D8
:100AB4000268D36823F01003D360F3E790F83D3065
:100AC400DBB2212B01D0022070478368B3F5805F2D
:100AD40017D0036A5A1C02621A7803685A60C38CDE
:100AE4009BB2013B9BB2C3844BB90268D36823F029
:100AF4008003D3600268D36843F04003D3600020CE
:100B040070470369002BE4D1036A1B880268C3F3AE
:100B140008035360036A02330362E0E710B5044636
:100B24000268136923F44053C1680B43136183685B
:100B34000269134342691A430168CB6823F4B05332
:100B440023F00C031343CB600268536923F440730E
:100B540081690B4353610268134B9A4220D000F021
:100B6400C9FE024602EB820202EB820263689B002A
:100B7400B2FBF3F20D48A0FB02314909642303FBE5
:100B840011231B013233A0FB03235B0903F0F002A2
:100B940002EB011203F00F03216813448B6010BDB4
:100BA40000F0B8FE0246DDE7003801401F85EB5136
:100BB4002DE9F84305460F4616469946DDF8208090
:100BC4002C68246837EA04030CBF4FF0010C4FF083
:100BD400000CB4451FD1B8F1FF3FF1D0B8F1000FBC
:100BE40005D000F06FFBA0EB09004045E8D92A6866
:100BF400D36823F4D073D3602A68536923F00103C4
:100C04005361202385F83D3085F83E30002385F874
:100C14003C30032000E00020BDE8F88358B310B551
:100C2400044690F83D300BB3242384F83D30226809
:100C3400D36823F40053D3602046FFF76FFF226884
:100C4400136923F4904313612268536923F02A0340
:100C540053612268D36843F40053D36000202064B6
:100C6400202384F83D3084F83E3010BD80F83C30B9
:100C740003F06EFED8E7012070472DE9F04182B001
:100C84001E4690F83D30DBB2202B54D104460D466D
:100C94009046002953D0002A53D090F83C30012BC1
:100CA40051D0012380F83C3000230364212380F8D1
:100CB4003D3000F007FB0746A4F82480A4F8268002
:100CC400A368B3F5805F05D04FF00008002384F8D3
:100CD4003C3012E0236913B14FF00008F6E7A84650
:100CE4000025F3E738F8023B2268C3F30803536096
:100CF400E28C92B2013A92B2E284E38C9BB273B179
:100D040000963B46002280212046FFF751FFE0B9C0
:100D1400002DE7D015F8012B23685A60E8E7009608
:100D24003B46002240212046FFF742FF78B92023AA
:100D340084F83D3000E0022002B0BDE8F0810120DB
:100D4400FAE70120F8E70220F6E70320F4E703209E
:100D5400F2E710B5044601684A6990F83D30DBB209
:100D6400212B0AD021684A6902F0400294F83E30EF
:100D7400DBB2222B11D0002010BD02F08002002A29
:100D8400F0D04B6923F080034B61406B08B100F055
:100D940093FF2046FFF770FEE4E7002AEBD04B698F
:100DA40023F040034B61A06B08B100F085FF20469F
:100DB400FFF76BFEDFE708B50168CA6822F040025E
:100DC400CA60202280F83D2003F067FE002008BDA1
:100DD40010B5446A23685A6994F83D30DBB2212B7C
:100DE40010D023685A6902F0400294F83E30DBB216
:100DF400222B11D0236C43F010032364204603F00C
:100E04004DFE10BD02F08002002AEAD00023E384E4
:100E14002046FFF731FEE4E7002AEBD00023E38508
:100E24002046FFF732FEE5E708B5406A0023C38594
:100E3400C38403F033FE08BD704790F83E30DBB244
:100E4400222B60D18368B3F5805F46D0826AB3F504
:100E5400805F04D0002B4DD10369002B4AD1036875
:100E64005B681370836A01338362C38D9BB2013B59
:100E74009BB2C385002B48D100B583B00268D36808
:100E840023F02003D3600268D36823F48073D36013
:100E94000268536923F001035361202380F83E3034
:100EA400036B012B2CD1002303630268D36823F066
:100EB4001003D36003681A6812F0100F06D00022E2
:100EC40001921A6801925B680193019B818DFFF77F
:100ED400B3FF002003B05DF804FB0269002AB5D11A
:100EE400826A03685B68C3F308031380836A02336E
:100EF4008362BAE703685B6803F07F031370B1E7AA
:100F040003F0C9FDE5E702207047002070470000A8
:100F140030B583B0044602681368D068516913F091
:100F24000F0505D113F0200F02D010F0200F19D1B6
:100F34002DB111F0010119D110F4907F16D1216B5C
:100F4400012975D013F0800F03D010F0800F40F00A
:100F5400D78013F0400F03D010F0400F40F0D4803E
:100F640003B030BD2046FFF768FFF9E713F0010F27
:100F740006D010F4807F03D0226C42F00102226478
:100F840013F0040F04D019B1226C42F0020222645F
:100F940013F0020F04D019B1226C42F0040222644F
:100FA40013F0080F07D010F0200F00D119B1226CF4
:100FB40042F008022264226C002AD1D013F0200FE0
:100FC40002D010F0200F21D123685B6903F04003A5
:100FD400226C12F0080F00D123B32046FFF755FD11
:100FE40023685A6912F0400F18D05A6922F040025F
:100FF4005A61A36B73B1464A5A63A06B00F07EFE3C
:101004000028ADD0A06B436B9847A9E72046FFF7B3
:1010140014FFD9E7204603F041FDA1E7204603F081
:101024003DFD9DE7204603F039FD0023236497E747
:1010340013F0100F86D010F0100F83D0002301930B
:101044001368019353680193019B536913F0400F94
:1010540032D0A16B0B685B689BB2002B80D0A08D53
:1010640098427FF67DAFE3858B69202B08D1A18D53
:10107400E38D9BB2C91A89B22046FFF7DDFE6FE704
:10108400D36823F48073D3602268536923F0010387
:1010940053612268536923F040035361202384F889
:1010A4003E30002323632268D36823F01003D36007
:1010B400A06B00F001FEDAE7A18DE38D9BB2C91AA3
:1010C40089B2E38D9BB2002B3FF44AAF00293FF471
:1010D40047AFD36823F49073D3602268536923F035
:1010E40001035361202384F83E30002323632268E4
:1010F400D36823F01003D3602046FFF79DFE2FE74B
:101104002046FFF7DBFC2BE72046FFF754FE27E7DA
:101114002D0E000808B5406A036B012B02D003F0C2
:10112400BBFC08BD818D4908FFF786FEF9E708B5C9
:101134000346406A1B681B6813F0200F16D1002376
:10114400C3850268D36823F48073D360026853694B
:1011540023F0010353610268536923F04003536190
:10116400202380F83E30036B012B05D0036B012B49
:1011740008D003F090FC08BD0268D36823F0100384
:10118400D360F3E7818DFFF757FEF4E730B583B002
:10119400044613468162828500250564222280F874
:1011A4003E20826B14489062A26B1448D062A26BFA
:1011B40013481063A26B556320680A46011DA06B97
:1011C40000F040FD019523681A6801925A68019263
:1011D400019A84F83C50DA6842F48072DA6022683A
:1011E400536943F0010353612268536943F0400398
:1011F4005361284603B030BD3311000819110008AB
:10120400D50D000808B590F83E30DBB2202B0DD187
:1012140071B17AB190F83C30012B0DD0012380F8E4
:101224003C3000230363FFF7B1FF00E0022008BD58
:101234000120FCE70120FAE70220F8E710B5044694
:101244000E4B18784FF47A73B3FBF0F30C4A106822
:10125400B0FBF3F000F0D4FF68B90F2C01D90120E2
:101264000AE0002221464FF0FF3000F083FF054BD7
:101274001C60002000E0012010BD00BF040000201D
:10128400000000200800002008B5074A136843F056
:1012940010031360032000F05BFF0F20FFF7CEFF65
:1012A400FFF792F9002008BD00200240034A1168AC
:1012B400034B1B780B441360704700BFD810002009
:1012C40004000020014B1868704700BFD8100020AC
:1012D40082B0084B1B68084AA2FB03235B0A00FB8D
:1012E40003F3019300BF019B5A1E0192002BF9D115
:1012F40002B0704700000020D34D6210002800F0B7
:10130400F18170B582B00446036813F0010F2CD04C
:10131400994B5B6803F00C03042B1DD0964B5B6860
:1013240003F00C03082B12D06368B3F5803F41D05F
:10133400002B55D103F1804303F504331A6822F4DA
:1013440080321A601A6822F480221A6037E08A4BCD
:101354005B6813F4803FE7D0874B1B6813F4003FAE
:1013640003D06368002B00F0BF81236813F0020FE1
:1013740075D0814B5B6813F00C0F5FD07E4B5B68BC
:1013840003F00C03082B54D02369002B00F08A804F
:101394007A4B01221A60FFF795FF0546764B1B68CE
:1013A40013F0020F75D1FFF78DFF401B0228F5D90A
:1013B40003209EE1704A136843F48033136063682A
:1013C40043B3FFF77FFF05466B4B1B6813F4003FE5
:1013D400CBD1FFF777FF401B6428F5D9032088E1C0
:1013E400B3F5A02F09D0644B1A6822F480321A6036
:1013F4001A6822F480221A60E1E703F18043A3F51E
:101404003C331A6842F480221A601A6842F480322B
:101414001A60D4E7FFF756FF0546574B1B6813F4D1
:10142400003FA2D0FFF74EFF401B6428F5D90320EC
:101434005FE1514B5B6813F4803FA5D14E4B1B68B1
:1014440013F0020F03D02369012B40F04F814A4A65
:10145400136823F0F803616943EAC1031360236846
:1014640013F0080F33D0A369002B5CD0434B012247
:10147400C3F88024FFF726FF05463F4B5B6A13F051
:10148400020F21D1FFF71EFF401B0228F5D90320CC
:101494002FE1394A136823F0F803616943EAC10371
:1014A4001360DCE7354B00221A60FFF70BFF05469B
:1014B400314B1B6813F0020FD1D0FFF703FF401B21
:1014C4000228F5D9032014E10120FFF701FF236866
:1014D40013F0040F00F09680274BDB6913F0805F54
:1014E40034D1254BDA6942F08052DA61DB6903F0CA
:1014F40080530193019B0125214B1B6813F4807FCA
:1015040026D0E368012B3DD0002B53D103F1804357
:1015140003F504331A6A22F001021A621A6A22F0ED
:1015240004021A6233E0154B0022C3F88024FFF74B
:10153400C9FE0546104B5B6A13F0020FC7D0FFF7D4
:10154400C1FE401B0228F5D90320D2E00025D3E7D1
:101554000B4A136843F480731360FFF7B3FE064627
:10156400074B1B6813F4807FCBD1FFF7ABFE801BC6
:101574006428F5D90320BCE0001002400000424278
:10158400007000405F4A136A43F001031362E3688A
:1015940033B3FFF797FE06465A4B1B6A13F0020F4C
:1015A4002FD1FFF78FFE801B41F288339842F3D985
:1015B40003209EE0052B09D0524B1A6A22F0010247
:1015C4001A621A6A22F004021A62E0E74D4B1A6AA0
:1015D40042F004021A621A6A42F001021A62D6E761
:1015E400FFF770FE0646474B1B6A13F0020F08D044
:1015F400FFF768FE801B41F288339842F3D9032039
:1016040077E0E5B9E369002B72D03E4A526802F0F4
:101614000C02082A56D0022B17D03B4B00221A6624
:10162400FFF750FE0446374B1B6813F0007F47D08A
:10163400FFF748FE001B0228F5D9032059E0314A80
:10164400D36923F08053D361DCE72F4B00221A6661
:10165400FFF738FE05462B4B1B6813F0007F06D0BE
:10166400FFF730FE401B0228F5D9032041E0236A2E
:10167400B3F5803F1AD023494B6823F47413226ACC
:10168400606A024313434B601F4B01221A66FFF743
:1016940019FE04461B4B1B6813F0007F0ED1FFF7A5
:1016A40011FE001B0228F5D9032022E0154A5368D5
:1016B40023F40033A1680B435360DCE7002018E0F7
:1016C400002016E0012B16D00E4B5B6803F480312A
:1016D400226A914211D103F47013626A93420ED1CB
:1016E400002006E001207047012002E0012000E014
:1016F400002002B070BD0120FBE70120F9E70120C2
:10170400F7E700BF001002400000424286B0174BCA
:101714000FCB0DF1180C0CE90F0040F20123ADF8CA
:101724000430134B5B6803F00C02082A02D0114802
:1017340006B07047C3F3834218326A4412F8100C9F
:1017440013F4803F0DD00A4B5B68C3F34043183356
:101754006B4413F8143C074A02FB00F0B0FBF3F0AF
:10176400E6E7054B03FB00F0E2E700BF1C4C000872
:101774000010024000127A0000093D00002800F029
:10178400A08070B50D460446524B1B6803F0070356
:101794008B420BD24F4A136823F007030B431360A9
:1017A400136803F007038B4240F08D80236813F025
:1017B400020F17D013F0040F04D0474A536843F4C0
:1017C400E0635360236813F0080F04D0424A53685F
:1017D40043F460535360404A536823F0F003A16814
:1017E4000B435360236813F0010F31D06368012B5E
:1017F40020D0022B25D0384A126812F0020F64D090
:1018040035494A6822F0030213434B60FFF75AFD3F
:101814000646314B5B6803F00C036268B3EB820F3E
:1018240016D0FFF74FFD801B41F288339842F0D960
:10183400032045E0284A126812F4003FE0D1012059
:101844003EE0254A126812F0007FD9D1012037E02A
:10185400204B1B6803F00703AB420AD91D4A1368E7
:1018640023F007032B431360136803F00703AB4211
:101874002DD1236813F0040F06D0174A536823F4BC
:10188400E063E1680B435360236813F0080F07D04B
:10189400114A536823F46053216943EAC103536036
:1018A400FFF734FF0C4B5B68C3F303130B4AD35CA1
:1018B400D8400B4B18600B4B1868FFF7BFFC002097
:1018C40070BD012070470120FAE70120F8E70120EC
:1018D400F6E700BF0020024000100240044C00085C
:1018E4000000002008000020014B1868704700BF6A
:1018F4000000002008B5FFF7F7FF044B5B68C3F353
:101904000223034AD35CD84008BD00BF0010024044
:10191400144C000808B5FFF7E7FF044B5B68C3F3FA
:10192400C223034AD35CD84008BD00BF0010024064
:10193400144C000870B582B00024A446B0E0874D72
:10194400AA4210D007D9864DAA420CD005F580359D
:10195400AA4208D013E0A5F58015AA4203D005F5E4
:101964007025AA4207D18A68002A62D0012A5BD076
:101974004361082403E0A5F58015AA42F3D0BEF123
:10198400FF0F58D80646BEF1FF0F56D84FEA8C0217
:1019940033680F25954023EA050304FA02F2134342
:1019A40033604B6813F0805F78D06E4B9A6942F0D5
:1019B40001029A619B6903F001030193019B4FEAC1
:1019C4009C02951C684B53F825600CF003039D00A2
:1019D4000F23AB4026EA0306644B984233D003F549
:1019E4008063984200F0988003F58063984200F089
:1019F400958003F58063984200F0928003F580633C
:101A0400984200F08F8003F58063984219D0062332
:101A14001AE0CC68B3E7CC680434B0E7CC68083487
:101A2400ADE7CC680C34AAE703610824A7E70024D7
:101A3400A5E70424A3E7061DA5E7ACF1080292007C
:101A4400A6E7052300E00023AB4033430232464DB2
:101A540045F822304B6813F4803F65D0444A13683C
:101A640043EA0E0313604B6813F4003F62D0404A0C
:101A7400536843EA0E0353604B6813F4801F5FD02E
:101A84003B4A936843EA0E0393604B6813F4001FC8
:101A94005CD0374AD36843EA0E03D3600CF1010CDF
:101AA4000A6832FA0CF357D0012303FA0CF302EA62
:101AB400030E33EA0202F1D14A68122A3FF63FAF1D
:101AC400122A3FF65CAF01A555F822F06B19000805
:101AD400171A0008211A0008331A0008831900088D
:101AE4008319000883190008831900088319000862
:101AF4008319000883190008831900088319000852
:101B04008319000883190008831900088319000841
:101B14001B1A0008271A0008012395E7022393E7FC
:101B2400032391E704238FE7114A136823EA0E0382
:101B3400136098E70E4A536823EA0E0353609BE749
:101B44000B4A936823EA0E0393609EE7084AD3681E
:101B540023EA0E03D360A1E702B070BD0000221097
:101B64000000311000100240000001400008014054
:101B7400000401400AB10161704709040161704722
:101B840030B40124056CAC40C56B6C6004686360C0
:101B94004368102B05D0036899600368DA6030BC91
:101BA400704703689A600368D960F8E700283AD060
:101BB40010B4024600681D4B984229D81C4B0344BC
:101BC4001C49A1FB03131B099B0013641A4BD36329
:101BD400022382F82130016821F47F5121F0300181
:101BE400536894682343D468234314692343546992
:101BF400234394692343D46923430B4303600020A4
:101C04009063012382F8213082F8200010BC7047D1
:101C14000A4B03440749A1FB03131B099B001364EC
:101C2400074BD363D4E70120704700BF0704024089
:101C3400F8FFFDBFCDCCCCCC00000240F8FBFDBFCB
:101C44000004024038B5044690F82000012831D041
:101C5400012084F8200094F82100012804D00023F6
:101C640084F82030022038BD022084F821000020AE
:101C7400A0632568286820F0010028602046FFF74B
:101C84007FFFE36A5BB12268136843F00E031360BD
:101C94002268136843F0010313600020E3E722681D
:101CA400136823F0040313602268136843F00A03E3
:101CB4001360EDE70220D6E790F82130022B06D01E
:101CC40004238363002380F82030012070470268D6
:101CD400136823F00E0313600268136823F00103F2
:101CE4001360036CC16B012202FA03F34B6080F8AA
:101CF4002120002380F820301846704708B590F85A
:101D04002130022B03D004238363012008BD026821
:101D1400136823F00E0313600268136823F00103B1
:101D2400136003684B4A93424ED9783A934224D0C5
:101D34001432934230D0143293422FD0143293424F
:101D44002FD0143293422FD0143293422FD0143216
:101D540093422FD002F5627293422ED014329342F2
:101D64002DD0143293422CD01432934202D04FF42B
:101D7400803203E04FF4805200E00122364B5A6077
:101D8400012380F82130002380F82030436B002B9E
:101D94005ED098470020B9E71022EFE74FF4807235
:101DA400ECE74FF48052E9E74FF48032E6E74FF472
:101DB4008012E3E74FF08072E0E70122DEE71022B1
:101DC400DCE74FF48072D9E7244A934224D01432DA
:101DD400934225D01432934224D01432934224D017
:101DE4001432934224D01432934224D014329342B6
:101DF40024D002F56272934223D01432934222D04B
:101E04001432934221D01432934202D04FF48032E0
:101E140003E04FF4805200E00122114B5A60AFE717
:101E24001022FAE74FF48072F7E74FF48052F4E798
:101E34004FF48032F1E74FF48012EEE74FF08072F6
:101E4400EBE70122E9E71022E7E74FF48072E4E7C9
:101E540000205BE7800002400004024008000240CA
:101E64000000024038B5C36B1A6804682568016C29
:101E740004238B40134200F09B8015F0040F00F004
:101E84009780236813F0200F03D1236823F0040301
:101E9400236003689A4A934246D9783A934224D0FD
:101EA4001432934228D01432934227D014329342EE
:101EB40027D01432934227D01432934227D01432BD
:101EC400934227D002F56272934226D01432934291
:101ED40025D01432934224D01432934202D04FF4CA
:101EE400802203E04FF4804200E00422854B5A60D4
:101EF400C36A03B1984738BD4022F7E74FF48062C4
:101F0400F4E74FF48042F1E74FF48022EEE74FF418
:101F14008002EBE74FF08062E8E70422E6E7402224
:101F2400E4E74FF48062E1E7774A934224D0143225
:101F3400934225D01432934224D01432934224D0B5
:101F44001432934224D01432934224D01432934254
:101F540024D002F56272934223D01432934222D0E9
:101F64001432934221D01432934202D04FF480228F
:101F740003E04FF4804200E00422644B5A60B7E768
:101F84004022FAE74FF48062F7E74FF48042F4E727
:101F94004FF48022F1E74FF48002EEE74FF08062C5
:101FA400EBE70422E9E74022E7E74FF48062E4E745
:101FB40002238B40134200F0AB8015F0020F00F0B7
:101FC400A780236813F0200F06D1236823F00A03A7
:101FD4002360012380F821300368494A93424BD996
:101FE400783A934224D0143293422DD0143293423F
:101FF4002CD0143293422CD0143293422CD014326D
:1020040093422CD0143293422CD002F56272934244
:102014002BD0143293422AD01432934229D0143252
:10202400934202D04FF4003203E04FF4005200E038
:102034000222344B5A60002380F82030836A002B3C
:102044003FF459AF984756E72022F2E74FF4007265
:10205400EFE74FF40052ECE74FF40032E9E74FF4B6
:102064000012E6E74FF00072E3E70222E1E72022E4
:10207400DFE74FF40072DCE7234A934224D01432A2
:10208400934225D01432934224D01432934224D064
:102094001432934224D01432934224D01432934203
:1020A40024D002F56272934223D01432934222D098
:1020B4001432934221D01432934202D04FF40032AE
:1020C40003E04FF4005200E00222104B5A60B2E7E2
:1020D4002022FAE74FF40072F7E74FF40052F4E7D6
:1020E4004FF40032F1E74FF40012EEE74FF00072C4
:1020F400EBE70222E9E72022E7E74FF40072E4E786
:102104008000024000040240080002400000024037
:10211400082303FA01F111423FF4EDAE15F0080F64
:102124003FF4E9AE236823F00E032360026CC16B15
:10213400012303FA02F24A60836380F8213000230A
:1021440080F82030036B002B3FF4D5AE9847D2E6DD
:10215400074AD36823F4E0631B041B0C000200F459
:10216400E060034343F0BF6343F40033D36070473C
:1021740000ED00E000B5194BDB68C3F30223C3F1A3
:10218400070CBCF1040F28BF4FF0040C03F1040E3C
:10219400BEF1060F18D9033B4FF0FF3E0EFA0CFCBC
:1021A40021EA0C0199400EFA03F322EA03031943CE
:1021B40000280BDB0901C9B200F1604000F5614061
:1021C40080F800135DF804FB0023E5E700F00F003E
:1021D4000901C9B2024B1954F4E700BF00ED00E055
:1021E40014ED00E0002807DB00F01F024009012382
:1021F4009340024A42F82030704700BF00E100E0FB
:102204000138B0F1807F0BD24FF0E0235861054ACA
:10221400F02182F823100020986107221A61704788
:102224000120704700ED00E0042806D04FF0E022C2
:10223400136923F00403136170474FF0E02213691C
:1022440043F0040313617047014B1868704700BFE3
:10225400DC10002010B5124B1B6803B19847FDF742
:10226400DFFF04460F4A13680133136001F03AFD9F
:10227400C36D013BC3657BB9836DC36590F834308E
:1022840043F0080380F834302046FDF7CDFF01F019
:10229400FBFA02F033F910BD2046FDF7C5FFF8E75D
:1022A400E0100020DC1000202DE9F0410D46164618
:1022B4001F46044690B1204601F0F6F9092814D1CE
:1022C400A37ECBB1D4F83480B8F1000F1AD03B46CA
:1022D400324629462046C047BDE8F08140F26B12E1
:1022E4000B490C4800F0B2FDE5E74FF4B67208491B
:1022F400094800F0ABFDE3E74FF0FF3000F06CFB62
:102304000020E9E76FF0050000F066FB0020E3E73A
:10231400A44C0008304C0008404C000800F11402A2
:10232400034B19684A6041611A608361704700BFBA
:102334000C00002038B50A4B1C689C420ED0254680
:10234400FDF76EFF55F814296368536022681A601C
:1023540064602460FDF768FF284638BD0025FBE76C
:102364000C00002010B505E0A06A00F0B3FD204683
:1023740001F04EF9FFF7DEFF80B10446D0F88C304F
:1023840003B19847204601F09BFB204601F076F903
:102394000128E9D1204601F0C1F8EBE710BD0000A7
:1023A40010B50BE00134032C06D8054B53F8243048
:1023B400002BF7D09847F5E7FFF7D4FF0024F2E7A6
:1023C4007811002030B587B000240CB107B030BDBF
:1023D40022460F4904A800F0DDFC0E4D942303FBB4
:1023E40004550D4B03EB0423202203921F22029277
:1023F4004FF48072019200930023084A04A92846EE
:1024040001F038FC284601F01FFE0134DDE700BF6F
:10241400B44C0008E410002088110020A523000813
:1024240038B50D46044688B12A460321204601F0FA
:1024340029F804F11403A36163610123A383002039
:102444002062FF22A277E077637238BD40F2EB226C
:102454000249034800F0FAFCE6E700BFF84D000823
:10246400484D00082DE9F04182B004460191FDF782
:10247400D7FE054601F0D4FA002849D1FDF7D0FE75
:10248400064601F02FFC00284ED0FDF7C9FE074692
:1024940000F0E0F9002853D13846FDF7C5FE304678
:1024A400FDF7C2FE2846FDF7BFFE002C55D020469E
:1024B40001F0FAF8032857D101F014FC0546FDF7A2
:1024C400AFFE06466B4B1B680BB1204698470023B2
:1024D4002B63206AA8424ED0A38B002B5DD0013B16
:1024E400A383256295F83530A377E37FFF2B4ED085
:1024F4000133E3773046FDF797FE5F4B1B68002BF3
:1025040000F0B58020469847002002B0BDE8F08175
:102514005A4E31465A4800F04FFC40F29932314647
:10252400584800F093FCA9E7544F3946564800F048
:1025340043FC40F299323946524800F087FCA4E744
:10254400DFF838814146514800F036FC40F29932B8
:1025540041464C4800F07AFC9EE74FF467724749C5
:102564004B4800F073FCA2E740F29D3243494948CE
:1025740000F06CFCA0E7E37FFF2B02D00133E3778C
:10258400B8E73046FDF750FE6FF00200BDE7304675
:10259400FDF74AFE6FF00200B7E7019BC3B195F85F
:1025A400352090F835309A421AD304F1140794F880
:1025B4000980284601F06AFCB8F1000F16D0B8F182
:1025C400010F2BD0A42234492E4800F03FFC15E023
:1025D4006FF001042C633046FDF726FE204694E795
:1025E40005F13502022101F06BFDDEE705F114036C
:1025F4007A6813607A68AA617B606F61019B002B23
:102604002ADC3046FDF710FE01F03EF9286B002865
:102614007FF47BAFFDF704FE06466BE763699F42D8
:102624000FD095F8351093F82120914201D31B68FF
:10263400F5E705F1140259680A605968A9615A60FE
:102644006B619F42DAD105F114037A6813607A68EA
:10265400AA617B606F61D1E705F1600701AA0021DF
:10266400384601F0F5FE384601F02AFEC9E700209D
:102674004BE700BF6413002060130020E84D0008FE
:10268400E44C0008A8530008104D0008BC4C000896
:10269400484D00085C4D0008084E0008F8B5044693
:1026A40000284BD0204600F0FFFF03284DD1FDF752
:1026B400B7FD054601F016FB00284DD0FDF7B0FD2F
:1026C400064600F0C7F8002852D13046FDF7ACFDAD
:1026D4002846FDF7A9FD01F005FB0546FDF7A0FD21
:1026E40006463F4B1B680BB120469847206AA84218
:1026F4004AD1E37F013BDBB2E377002B6AD1A27FAF
:1027040090F835309A4246D104F114036269934239
:102714004DD0A2F11400206292F82130A377E37F18
:10272400FF2B3ED00133E37701F048FC012430460F
:10273400FDF77AFD012C4FD02046F8BD40F2494206
:102744002849294800F082FBACE740F24A42254977
:10275400264800F07BFBAAE7224E3146244800F0CD
:102764002BFB40F24F423146224800F06FFBA5E7B5
:102774001C4F3946204800F01FFB40F24F423946B7
:102784001C4800F063FBA0E74FF0FF342C63304695
:10279400FDF74AFDD0E704F11E02022101F090FC8E
:1027A400B2E73046FDF740FD6FF00204C4E7A38BA7
:1027B4004FF6FF72934207D00133A38300232362B1
:1027C400FF22A2771C46B2E73046FDF72DFD6FF0DD
:1027D4000204B1E70024AAE701F056F80024ABE7AD
:1027E4005C130020D44D0008484D00085C4D0008DF
:1027F400104D0008A8530008BC4C000810B5FDF7A4
:102804000FFD0446064A13780133DBB21370054BFF
:102814001B6803B198472046FDF706FD10BD00BFB5
:10282400901200208812002010B5FDF7F9FC044630
:10283400064B1B6803B19847054A1378013BDBB28A
:1028440013702046FDF7F0FC10BD00BF8C12002071
:102854009012002010B5FDF7E3FC034B1C78E4B2A2
:10286400FDF7E2FC204610BD901200202DE9F04750
:1028740084B099460D9C0E9D15F0400F17D0DFF8DB
:102884004CA115F0100F01D025F0010515F0010F32
:1028940010D0302615F0020F11D0002A0CDB15F0F1
:1028A400040F21D115F0080F20D1002708E0DFF82C
:1028B40020A1E6E72026EDE752422D2700E000277D
:1028C40092BB30238DF800304FF0010CA4452EDC70
:1028D40022460C9B9B1A15F0110F38D117B1002B0F
:1028E40000DD013B9E4626E02B27E9E72027E7E7AA
:1028F400384BA3FB023E4FEADE0E0EEB8E08A2EB32
:10290400480872461AF808E00CF110036B4403F807
:1029140010EC0CF1010C002AD8D0B9F10A0FE7D061
:1029240002F00F081209EDE74FF0000CF3E76246DE
:10293400CFE701309E460EF1FF33BEF1000F06DDF6
:102944008842F6D24FF0200E80F800E0F1E727B17C
:10295400884200D20770013B013015F0100F02D0FD
:102964000CE001302B465D1E002B03DD8842F8D2BB
:102974000670F6E72B4601E00130724602F1FF3E95
:10298400624506DD8842F7D230220270F4E7013056
:1029940094460CF1FF32BCF1000F0BDD54B18842B8
:1029A400F5D202F110056D4415F8105C0570EEE7E0
:1029B400013013465A1E002B04DD8842F8D220232E
:1029C4000370F5E704B0BDE8F08700BF484F000886
:1029D4005C4F0008CDCCCCCC10B50446FFF73AFFD1
:1029E40010B1054B1C6010BD01F07CF908B1046303
:1029F400F9E7014B1C60F6E794120020032A22D960
:102A040010B4CCB210F0030F1FD144EA042444EAFA
:102A14000444034605E01C605C609C60DC60103A82
:102A240010330F2AF7D802E043F8044B043A032A80
:102A3400FAD802E003F8011B624602F1FF3C002AC7
:102A4400F8D110BC7047034604E00346F5E703F8E9
:102A5400011B624602F1FF3C002AF8D170479AB18B
:102A640010B5944603468E460C7801311C70013330
:102A74001CB1BCF1010CF6D110BDBCF1010CFBD0B2
:102A8400002203F8012BF8E7704700002DE9F0411C
:102A940086B00746884614460593461803D36FEA62
:102AA40000084FF0FF36384601E001300134237846
:102AB400002B00F05681252B03D0B042F5D20370D1
:102AC400F3E7002101E041F0100114F8013F2D2B40
:102AD400F9D02B2B08D0202B09D0232B0AD0302B54
:102AE4000BD141F00101F0E741F00401EDE741F0C1
:102AF4000801EAE741F02001E7E7A3F13002092ADF
:102B04001BD92A2B1BD04FF0FF3523782E2B21D035
:102B14004FF0FF3C2278682A43D06C2A41D000222F
:102B240040E005EB850514F8013B03EB4505303D1A
:102B34002378303B092BF4D9E7E70025F8E7013483
:102B4400059B1A1D05921D68002DDEDA6D4241F0C9
:102B54001001DAE714F8013FA3F13002092A16D96B
:102B64002A2B17D04FF0000CD4E70CEB8C0C14F884
:102B7400013B03EB4C0CACF1300C2378303B092BBC
:102B8400F3D9BCF1000FC5DA4FF0000CC2E74FF0E7
:102B9400000CF2E70134059B1A1D0592D3F800C01E
:102BA400EFE701342378252B00F09180C0F0B0804A
:102BB400782B00F2AD80582BC0F0AA80583B202B14
:102BC40000F2A680DFE803F09CA4A4A4A4A4A4A417
:102BD400A4A4A411A0A4A4A4A4A0A4A4A4A4A48967
:102BE4006FA4A430A4B3A4A4B50011F0100F09D0AD
:102BF400059B1A1D05921B78B04200D20370013068
:102C040009E00130013D002DF2DDB042F9D220236C
:102C14000370F6E70130013D002D7FF747AFB04266
:102C2400F8D220230370F5E7059B1A1D05921A6854
:102C34000AB1002302E0524AFBE70133AB4204D05D
:102C440012F803E0BEF1000FF7D1BCF1000F02DD72
:102C5400634500DD634611F0100F03D000210EE040
:102C640001300D46691EAB4204DAB042F8D2202589
:102C74000570F5E70D46F1E7013001320131994263
:102C840008DAB042F8D292F800C080F800C0F3E746
:102C9400013015466A1EAB42BFF608AFB042F7D208
:102CA40020210170F4E7B5F1FF3F0CD0059B1A1DFC
:102CB40005921A680291CDF804C00095102331469C
:102CC400FFF7D4FDF2E641F001010825EEE7B0423A
:102CD40001D2252303700130E8E608236C2A2AD0A8
:102CE400682A2FD0059A02F1040ECDF814E0126878
:102CF4000291CDF804C000953146FFF7B7FDD5E643
:102D040041F040011023E9E741F002010A23E5E71D
:102D1400B04201D225230370421C237823B1B2426E
:102D240000D243700230C1E6013C1046BEE60A23DD
:102D3400D4E71023D2E7059A02F1040ECDF814E08B
:102D44001268D5E7059A02F1040ECDF814E0D2F822
:102D540000E01FFA8EF211F0020FC9D00FFA8EF2C2
:102D6400C6E7B8F1000F02D0B04204D20370C01B12
:102D740006B0BDE8F081002306F8013CF7E700BF88
:102D84001C4E000808B513460A464FF0FF31FFF702
:102D94007DFE08BD0EB400B582B003AA52F8041B30
:102DA4000192FFF7EFFF02B05DF804EB03B0704748
:102DB40008B501F067FE08BD0FB410B582B004ABCE
:102DC40053F8042B01937F210C48FFF75FFE044660
:102DD4007F2800D97F240A4B186850B12346074A3C
:102DE4000021FFF761FA204602B0BDE8104004B0AC
:102DF40070470248FFF7DCFFF5E700BFC812002068
:102E04009812002000B583B00A48FFF7D5FF0A489E
:102E1400FFF7D2FF094B0193094B009300230122D2
:102E240004210848FFF7C8FF0748FFF7C5FF03B0B0
:102E34005DF804FB244E0008304E0008784E00086C
:102E4400844E0008544E0008904E000800B583B02C
:102E540000238DF80730094B1B681BB1984703B05A
:102E64005DF804FB13460A4601460548FFF7A4FF34
:102E74009DF80730002BFBD0F1E700BFC012002003
:102E8400BC4E0008F8B50446C51C25F0030521F026
:102E94000306B5420DD20A4F721B2146384600F094
:102EA400C7F8084B1860012239460748FFF7B8FAFB
:102EB400F8BD40F2B55205490548FFF7C7FFEAE7F8
:102EC4000C4F00084C1300209C120020344F0008C3
:102ED400F44E000838B50446104B1B6803B19847FC
:102EE40000F000FF80B14FF0FF310D48FFF7BAFA50
:102EF4000546204600F0A2F945B900F0F3FE10B1F2
:102F04000748FFF7CBFB38BD0025F2E740F25F52DC
:102F140004490548FFF79AFFEFE700BFC4120020F9
:102F24009C120020244F0008144F000870B5054679
:102F340000F0D8FED0B14FF0FF311148FFF792FAFC
:102F4400064629460F4B186800F0B8F804467EB9C7
:102F540000F0C8FE10B10A48FFF7A0FB0A4B1B683B
:102F640013B1294620469847204670BD0026E8E75D
:102F740040F25F5205490648FFF768FFE8E700BFE3
:102F84009C1200204C13002048130020244F0008FA
:102F9400144F000838B505460C46836A8B4230D876
:102FA400EB6AA34233D9A96A62688B189C4212D097
:102FB400885810F0010F0ED1E86A98420BD0286BA4
:102FC40098422AD0002088505A686260AA6A5B68D6
:102FD4001344A21A9A60A96AA2688B189C420FD063
:102FE4008A5812F0010F0BD12A6BA24217D000228B
:102FF400226062685A60A96A62680A445B1A936034
:1030040038BD822207490848FFF720FFC8E783221A
:1030140004490648FFF71AFFC5E72C63D2E72B6380
:10302400E5E700BF1C530008704F0008944F0008E8
:10303400F8B50A4422F00303182B35D90746CC1CF3
:1030440024F0030404F138000646A3F11805854270
:103054002AD31B1AA3F11805382200212046FFF7B2
:10306400CDFC3A460C21204600F00CFA114B63616A
:10307400A661E5616563A6623460636B0C337360BB
:103084000022B260A26AD118E16244F00101D15079
:10309400636BE26A0C335360636BE26A0C339360D4
:1030A400A36A23632046F8BD0348FFF785FE00208A
:1030B400F9E700BFC44F0008CC4F0008F8B5002959
:1030C40000F0A88006460D46B0B1304600F0ECFA98
:1030D4000C2818D1304600F0D1FAD8B1033525F0C8
:1030E4000305716B8D4200F297800B2D00D80C25DF
:1030F400336BB76ADB1B45E04FF49072474948488D
:10310400FFF7A4FEE1E740F2211244494548FFF7E6
:103114009DFEDFE74FF4917240494348FFF796FE66
:10312400DCE7E31BC31A326A13443362726A9342C4
:1031340053D9736251E0B36A526813443363326BF8
:10314400136813F0010302D0F16A8A42F3D1F16AE1
:103154008A4248D0002B46D040F283122F4933488C
:10316400FFF774FE3FE040F285122C493048FFF728
:103174006DFE3DE04FF4C37228492E48FFF766FE0A
:103184003BE063684A1B934241D8FC18FA5812F09A
:10319400010FF6D16068C21A0C3AAA42F1D305F1C4
:1031A40018018A42BDD3EA180C32B91826F001007E
:1031B400B850606848608B6062604968736B0C3318
:1031C400994202D0B36A0B449A60336A2B440C339D
:1031D4003362726A934200D9736246F0010323603A
:1031E400336BA342ABD025440C35F36A9D42BAD865
:1031F40004F10C0514F0030FBCD114F0030F07D035
:1032040040F2871205490C48FFF720FE00E0002534
:103214002846F8BD0025FBE70025F9E728530008F8
:10322400C051000808500008445000086C500008C1
:10323400BC5000080C5100085851000800286AD0FE
:1032440070B5054610F0030F42D1A5F10C0655F8F0
:103254000C4C34F0010442D055F80C3C13F0010F2F
:1032640044D0204600F020FA0C2846D1204600F035
:1032740005FA002848D0A36AAB4202D8E36AAB42FD
:1032840005D84FF4067224492448FFF7DFFDA26AEB
:1032940055F8083CD35823F00103A34205D040F26B
:1032A4001A221D491E48FFF7D1FD45F80C4C236B2B
:1032B400B34200D92663A36AF31A55F8082C9B1A63
:1032C400226A1344236231462046FFF763FE70BD31
:1032D4004FF4027210491348FFF7B8FDB5E74FF4F5
:1032E40005720D491048FFF7B1FDB5E740F215220C
:1032F40009490E48FFF7AAFDB3E740F21622064932
:103304000B48FFF7A3FDB1E740F217220249094831
:10331400FFF79CFDAFE770470C53000860520008AC
:10332400D452000888510008B8510008D051000850
:10333400E0510008285200082DE9F04106460F46E6
:103344001446FCF76DFF0546FFF784FA30BB2846A8
:10335400FCF76AFF76B307B124B9D2222449254881
:10336400FFF774FD3146082000F0FEF806460028F9
:103374003BD0033424F00304C461043407FB04F099
:10338400B061FFF7D3FD05467061C8B17762B762DB
:1033940006F12C033363F36200231DE0DFF8508051
:1033A40041461548FFF708FDCE2241461348FFF772
:1033B4004DFDCCE7D1220E491148FFF747FDCAE77E
:1033C400304600F025F92E460FE003FB044203FBD0
:1033D40004F12A446A500133726A9A42F5D8013BD7
:1033E40004FB03F30022EA5035623046BDE8F08165
:1033F400AC53000888530008BC4C0008A8530008CC
:103404004853000840B3F8B50546071F50F8044C6C
:10341400124B1B6813B1014620469847FCF700FF86
:103424000646A36A0133A362236A45F8043C276273
:1034340004F12C03E06A83420AD00023C3611438E8
:1034440000F0BCFD3046FCF7EFFE00F01DFAF8BDBD
:103454003046FCF7E9FEFAE7704700BF501300203E
:103464000023092B09DC1A0105498A5C824201D038
:103474000133F6E701EB031070470020704700BFEB
:10348400140000202DE9F843064688469146084674
:10349400FFF7E6FF074618B100F098FA7C6807E0EA
:1034A4004FF4AB7219491A48FFF7D0FCF4E72468CB
:1034B4003D1DA5420BD0B4F10C03F8D09E42F6D1C9
:1034C4004FF4B37211491348FFF7C0FCEFE700F063
:1034D40089FA68F07F0886F8088008224946304651
:1034E400FFF7BDFA0C4B1B680BB130469847FCF74D
:1034F40097FE06F10C037A6853607A68F2607B6089
:103504003561FCF791FEBDE8F88300BF90540008D4
:10351400BC530008D45300085413002010B50446CB
:10352400A0B10E4B1B680BB12046984700232372B1
:10353400FCF776FE04F10C03E16822694A60E16855
:1035440011602361E360FCF76FFE10BD40F293123B
:1035540003490448FFF77AFCE3E700BF581300204F
:103564007C540008E4530008F8B506460F46FCF7FF
:1035740057FE0446FFF76EF960BB2046FCF754FE85
:103584003046FFF76DFF054680B3E868FFF7CEFCD1
:103594000446E8B1EA680021FFF730FA26720023F6
:1035A4006372082239462046FFF759FA134B1B6809
:1035B4000BB120469847FCF733FE2A1D04F10C0397
:1035C40069684B606968E1606B602261FCF72CFEFE
:1035D4002046F8BD0A4D29460A48FFF7EDFB40F2A4
:1035E400B71229460848FFF731FCC6E740F2BB1280
:1035F40003490648FFF72AFCC7E700BF541300201D
:1036040068540008BC4C0008A8530008BC530008C8
:1036140010B50446D8B194F90830002B1EDB134BC7
:103624001B680BB12046984700232372FCF7F8FD72
:1036340004F10C03E16822694A60E16811602361C6
:10364400E360FCF7F1FD2046FFF744FC10BD40F2B7
:10365400F51207490748FFF7F9FBDCE74FF4FB7263
:1036640003490548FFF7F2FBD9E700BF58130020D0
:1036740054540008E4530008F853000810B50446F5
:1036840028B194F90830002B08DB002010BD4FF45A
:10369400067203490348FFF7D9FBF2E70120F5E777
:1036A40038540008E453000810B5044618B1207AD1
:1036B40000F07F0010BD40F22B2202490248FFF7C0
:1036C400C5FBF4E724540008E453000810B504468D
:1036D400054B186801F034F8431E044A52F83300CD
:1036E4002360143810BD00BF7C1400207C1300201C
:1036F40010B5044698B1A36A1A78232A06D1E26960
:103704009A4203D9E16A19448A420ED921460B48E8
:10371400FFF752FBFCF784FD0028FDD110BD5F22AA
:1037240007490848FFF792FBE5E720339A42F5D8AA
:1037340021460548FFF740FBF0E700BFB4540008FA
:1037440040550008A0540008D05400080023084A3B
:10375400138006E0074901EBC302526041F83320AD
:1037640001331F2BF6DD044B00221A60704700BFA3
:10377400741300207C1300207C14002010B5044630
:1037840010B3FCF74DFD184B1B68A34223D094F9EA
:10379400343023F0070343F0010384F8343094F801
:1037A4003520124B03EBC20304F1140259680A607A
:1037B4005968A1615A606361A16B0D4A13680B4398
:1037C4001360FCF731FD10BD40F2D22209490A48CA
:1037D400FFF73CFBD5E794F9343023F0070343F0BB
:1037E400030384F83430ECE76C1300207C130020CE
:1037F4007C14002024550008A054000810B5044689
:10380400B0B1FCF70DFD04F114036169A2694A60CB
:1038140061691160A361636194F835200B4B03EB7C
:10382400C20153F83230994209D0FCF7FDFC10BDB7
:1038340040F2333206490748FFF708FBE1E7A16B82
:10384400054A136823EA01031360EEE77C130020A2
:1038540008550008A05400087C14002010B582B05C
:1038640001A8FFF733FF0446064B1860FFF7C6FFB5
:10387400032384F8343004F11C00FCF706FD02B085
:1038840010BD00BF6C130020F0B583B0FCF7C8FC7A
:103894000546474BB3F9003013B9464B1B6823B9AF
:1038A4002846FCF7C1FC03B0F0BD01A8FFF70EFFEA
:1038B4000446414B1E6896F8343003F00702032A8D
:1038C40043D00027A64265D09DF804203B4B1A70D4
:1038D400394B1C603A4B1B6813B12146304698475C
:1038E400002F49D12046FFF789FF94F9343023F0A3
:1038F400070343F0030384F834302046FFF7F8FE4F
:10390400304B1B78002B3ED12F4B1B680BB130463C
:10391400984704F11C0106F11C00FCF788FC2846BA
:10392400FCF782FCFCF77CFC234B1A6892F83430D9
:1039340013F0400F24D023F0400382F83430FCF716
:1039440073FC012000F072F8ADE796F83510019A87
:10395400914207D301D0012706E013F0080F08D0E5
:10396400012701E03446002723F0080386F83430A9
:10397400A8E734460027F7E73046FFF7FFFEB1E734
:10398400FCF752FC8FE704F11C0106F11C00FCF764
:103994004EFC85E73046FFF731FF074B1A6892F972
:1039A400343023F0070343F0030382F8343077E71D
:1039B400741300207C1400206C1300206813002072
:1039C40070130020901200207813002008B5FCF733
:1039D40027FC034A138801331380FCF725FC08BD38
:1039E4007413002008B5FCF71BFC0B4A1388013B39
:1039F4001BB21380002B02DDFCF716FC08BD134636
:103A040000221A80FCF710FC044B1B68002BF5D035
:103A1400FFF73AFFF2E700BF741300206C13002095
:103A2400014B1888704700BF741300202DE9F84338
:103A3400814600F057F90446FCF7F2FB0546626C38
:103A4400A36C1A4204D094F8343013F0200F0FD032
:103A54002846FCF7E9FBBDE8F883626513E0FCF750
:103A6400DFFB05463046FFF7CDFC6FF00803236308
:103A7400636CA26C134219D0666DBEB1F268002A61
:103A8400EBD00C3A6265D6F80080226D52F82870AB
:103A9400012202FA08F223EA020363642846FCF7CF
:103AA400C3FB002FDBD04046B847D8E7B9F1010F7C
:103AB400D1D194F8343023F0100384F83430C7E7BC
:103AC40070B50546FCF7ACFB6C6D00236B652E6D81
:103AD4002B65FCF7A9FB3CB10C34204624680C3858
:103AE400FFF790FC002CF8D116B13046FFF7F2F93D
:103AF40070BD000008B5102220210C48FFF71CFC03
:103B04000B4B186008B1002008BD0A48FFF754F9B0
:103B14000948FFF751F90948FFF74EF940F28522A9
:103B240007490848FFF792F9EDE700BFA4550008DC
:103B3400801400206C550008AC550008805A000819
:103B4400D8550008A8530008F0B583B004461746BA
:103B54000898099A9DF828500B9E04F11401A1615C
:103B6400616127626362A062E2622321FEF746FF7D
:103B7400A16AE36A1A1F1A4B0A44616A206A00F0B8
:103B84003BFDE0611F2D25D884F835500025A56341
:103B9400E56384F84050A665E665256384F83450EF
:103BA400C4F88C50C4F890500195009523460D4AF2
:103BB400214604F1600000F0FBFAA5646564E56445
:103BC40025656565084B1B680BB1204698470020A6
:103BD40003B0F0BDBE2205490548FFF737F9D3E726
:103BE400F53C0008F93B0008841400201458000830
:103BF400F055000838B5044610B394F8343003F097
:103C04000703022B22D12046FFF74EFD012823D1C2
:103C1400FCF706FB05466FF00103236304F114036C
:103C24006169A2694A6061691160A36163612046A8
:103C3400FFF7A4FD2846FCF7F7FAFFF725FE38BD89
:103C4400872208490848FFF701F9D6E78822054981
:103C54000648FFF7FBF8D6E7892202490448FFF734
:103C6400F5F8D5E704580008A054000814560008D5
:103C7400505600082DE9F04184B00C4615461E4606
:103C8400DDF828800746C8B1B8F1000F1DD02246E0
:103C940001213846FFF7F6FB0D9B03939DF8303066
:103CA40002930B9B0193CDF8008033462A462146AC
:103CB4003846FFF749FF04B0BDE8F08140F2311205
:103CC40005490648FFF7C2F8DEE74FF49972024946
:103CD4000348FFF7BBF8DAE794570008A05400083C
:103CE40094560008014B1868704700BF6C130020FD
:103CF40038B5FFF7F7FF0446FCF792FA054620466D
:103D0400FFF77CFD04F1600000F090FA042384F8CE
:103D140034302046FEF702FB2846FCF785FAFFF70D
:103D2400B3FD38BD38B5044608B32046FFF7BCFCE4
:103D3400012823D12046FFF7A1FC30B394F8343096
:103D440003F00703042B10D033BBFCF769FA0546D4
:103D540004F1600000F06AFA042384F83430204649
:103D6400FEF7DCFA2846FCF75FFA002038BD40F283
:103D74008F120B490B48FFF769F8D6E74FF4C87266
:103D840007490948FFF762F8D4E740F29112044961
:103D94000648FFF75BF8D1E72046FFF72FFDD4E78D
:103DA400DC570008A054000850560008AC56000820
:103DB4002DE9F04385B004460F4690461D46014662
:103DC4000120FFF7D1FB064688B12846FFF7AEF87D
:103DD400814680B10D9B03939DF830300293019589
:103DE400009043463A4621463046FFF7ADFE304642
:103DF40005B0BDE8F0833046FFF70AFC4E46F6E70F
:103E040038B5044608B32046FFF74EFC012823D1F9
:103E14002046FFF733FC30BB94F8343003F007033B
:103E2400042B10D033BBFCF7FBF9054604F160000A
:103E340000F0FCF9042384F834302046FEF76EFACF
:103E44002846FCF7F1F9002038BD4FF4FB720B490A
:103E54000B48FEF7FBFFD6E740F2F7120749094883
:103E6400FEF7F4FFD4E74FF4FC7204490648FEF76A
:103E7400EDFFD1E72046FFF7C1FCD4E7C85700089F
:103E8400A054000850560008DC56000838B5044613
:103E940090B32046FFF708FC012834D1FFF722FF36
:103EA400844205D040F24D321D491E48FEF7CEFF34
:103EB40094F8343003F00703012B01D0032B29D1EC
:103EC400FCF7AEF905462046FFF798FC94F9343028
:103ED40023F0070343F0020384F8343004F1600054
:103EE40000F06EFA2846FCF79FF90F4B1B68A3B14C
:103EF40020469847002038BD40F24B3208490B4811
:103F0400FEF7A4FFC5E74FF4537205490848FEF7CE
:103F14009DFFC3E74FF0FF30EDE70020EBE700BF64
:103F240080570008185700088C140020A05400087B
:103F340050560008F0B583B00190FFF7D3FE044655
:103F440010B32046FFF7B0FB012824D1FCF768F931
:103F54000646002727632046FFF798FF04F1600513
:103F640001AA3946284600F073FA284600F0A8F959
:103F74003046FCF759F9FFF787FC236B13F1020F66
:103F840010D0206B03B0F0BD40F23F220649074831
:103F9400FEF75CFFD5E74FF4107203490448FEF7BF
:103FA40055FFD3E72763ECE7B8570008A05400088F
:103FB4005056000808B5FFF7BDFF08BD38B50446E4
:103FC40038B32046FFF770FB012829D194F8343028
:103FD40003F00703022B2AD1FCF722F9054604F16A
:103FE40014036169A2694A6061691160A361636134
:103FF40004F1600000F0E4F92046FFF7BFFB284617
:10400400FCF712F90C4B1B68A3B12046984700201B
:1040140038BD40F2793209490948FEF717FFD0E765
:1040240040F27A3205490748FEF710FFCEE74FF019
:10403400FF30EDE70020EBE7881400206C57000800
:10404400A05400085056000810B50446D8B194F89E
:10405400343013F0070F1DD12046FFF725FB01284C
:104064001FD194F8352001239340A363022384F8DD
:1040740034302046FFF7A2FFFFF734FE08B1FFF704
:1040840003FC002010BD4FF4B27209490948FEF741
:10409400DDFEDCE740F2651205490748FEF7D6FE6F
:1040A400DAE74FF4B37202490448FEF7CFFED8E7CB
:1040B400F0570008A0540008345700085056000870
:1040C40070B50C461646054660B12846FFF7ECFA73
:1040D40001280ED1012C39D0022C11D08CB300242C
:1040E400204670BD40F2D52221492248FEF7AEFE9B
:1040F400EBE740F2D6221E491F48FEF7A7FEE9E788
:10410400FCF78EF8044695F8343003F00703012BCE
:104114000AD0327885F8352001239340AB632046DA
:10412400FCF782F80024DBE72846FFF767FB3278C8
:1041340085F8352001239340AB632846FFF71EFB27
:10414400EDE72846FFF780FF0446C9E72846FFF756
:1041540095FA012806D02846FFF752FE0446FFF7D9
:1041640093FBBDE72846FFF7DDFD0446F7E700BFF4
:10417400A4570008A0540008505600089DF800C039
:1041840080F809C02CF0010C80F809C0C1610262FA
:104194000022826243621346002B00DD70479A1CA2
:1041A40000EBC202111D916051600133F4E700007D
:1041B4002DE9F04182B00E4614461D46DDF82080FC
:1041C4000746A8B1DCB16FF0004398451ED23246D1
:1041D4000A213846FFF756F99DF8243000934346E8
:1041E4002A4621463846FFF7C9FF02B0BDE8F081F0
:1041F40040F20F1209490A48FEF728FEE2E74FF49D
:10420400887206490748FEF721FEDCE740F21112E6
:1042140002490548FEF71AFED9E700BF38590008DD
:1042240024580008385800084C58000838B504468B
:10423400C0B12046FFF738FA0A281AD12046FFF702
:104244001DFAE8B1FBF7ECFF0022002A1FDD637AB8
:1042540023F001036372FBF7E7FF2046FFF75EF9E3
:10426400002038BD4FF4937211491248FEF7EEFD59
:10427400DFE740F227120E490F48FEF7E7FDDDE7BE
:104284004FF494720A490D48FEF7E0FDDAE7931CF7
:1042940004EBC303191D9D68D3F804C0CCF8045083
:1042A400D3F804C0C5F800C0996059600132CCE766
:1042B400285900082458000864580008A058000829
:1042C40070B582B00446002834D02046FFF7ECF9DC
:1042D4000A2836D1FBF7A4FF05460022002A37DD61
:1042E400637A23F0010363722F4B1B680BB12046E2
:1042F4009847FDF7A9FF636AC618A6622B4B019382
:104304000022002A36D02A4A136801331360019B25
:1043140004F1140219684A60196861611A60A361A2
:10432400637A43F0010363722846FBF77DFF0020A4
:1043340002B070BD4FF4CC721E491F48FEF786FDD3
:10434400C3E740F299121B491C48FEF77FFDC1E701
:10435400931C04EBC303191D5E68986870605E6863
:104364000660996059600132B8E702AB03EB82033F
:1043740043F8041C02AB03EB820353F8040CD30090
:104384000A4901EBC201496888420AD00168143322
:10439400CB1A9B6A9E42E8D09B1B6FF0004083427D
:1043A400E3D20132ADE700BF601300209014002077
:1043B400981400201859000824580008645800086C
:1043C40038B50446D0B12046FFF76EF90A281CD14F
:1043D400637A13F0010F30D0194B1B680BB12046E0
:1043E4009847FBF71DFF0022002A15DD637A23F0AE
:1043F40001036372FBF718FF002038BD4FF4047209
:1044040010491148FEF722FDDDE740F211220D4963
:104414000E48FEF71BFDDBE7931C04EBC303191DD9
:104424009D68D3F804C0CCF80450D3F804C0C5F890
:1044340000C0996059600132D6E74FF0FF30DCE7E5
:104444005C13002008590008245800086458000828
:10445400F8B50C461646074670B13846FFF724F9FE
:104464000A2810D1FBF7DCFE0546052C36D8DFE818
:1044740004F0141123282D334FF40D721B491C48EA
:10448400FEF7E4FCE9E740F2352218491948FEF743
:10449400DDFCE7E77B6A336020E032686FF00043BD
:1044A4009A4202D233687B6218E040F23F220F49FD
:1044B4001148FEF7CBFCF5E77B7A23F002037B720D
:1044C4000CE07B7A43F002037B7207E07B7A13F003
:1044D400010F08D001233360BB6A33602846FBF721
:1044E400A3FE0020F8BD00233360F5E7F45800086C
:1044F4002458000864580008CC580008F0B583B06C
:10450400CDF804D0CDF800D0FDF79EFE0546FBF7AC
:1045140087FE07462EE0931C06EBC303191D5D6856
:10452400986868605D68056099605960013233E09D
:10453400009B5C6023600094C4F804D0A368E06826
:104544009847FDF781FE0546204B1B680BB13046AA
:104554009847009A6B469A420CD02268636853606D
:1045640022681A606460246014F80B3C03F00302B0
:10457400032A1DD0164B1C689C4221D0A4F11406BA
:104584006369EB1A6FF00042934219D2114B1B6816
:104594000BB1304698470022002ABCDD14F80B3CCE
:1045A40013F0020FC4D123F0010304F80B3CBFE75E
:1045B40023F0010304F80B3C3046FFF781FED9E7F2
:1045C4003846FBF731FE03B0F0BD00BFA014002055
:1045D400901400209C140020002303B17047044968
:1045E40001EBC302526041F833200133F5E700BF09
:1045F400901400207047000030B40546043222F0C5
:10460400070CACF14000002203E00D4C40F82240BE
:1046140001320F2AF9D94CF8201C00224CF81C2C2A
:104624004CF8182C4CF8142C4CF8102C4CF80C3C6E
:104634004CF8085C4FF080734CF8043C30BC704775
:10464400EFBEADDE10B504462A4B1B6813B1984784
:1046540000284ED0216C2848FEF7AEFB616A27483B
:10466400FEF7AAFBA16A2648FEF7A6FBE16A2548E5
:10467400FEF7A2FB216B2448FEF79EFB61682348EA
:10468400FEF79AFBA1682248FEF796FBE1682148F1
:10469400FEF792FB21692048FEF78EFB61691F48F3
:1046A400FEF78AFBA1691E48FEF786FBE1691D48F7
:1046B400FEF782FB216A1C48FEF77EFB616B1B48F8
:1046C400FEF77AFBA16B1A48FEF776FBE16B1948FB
:1046D400FEF772FB236813F0040F06D0FFF702FB0A
:1046E40001461548FEF768FBFEE71448FEF764FB35
:1046F400FAE710BDA41400204859000858590008CE
:104704006859000878590008885900089859000821
:10471400A8590008B8590008C8590008D859000811
:10472400E8590008F8590008085A0008185A0008FF
:10473400285A0008385A0008485A0008685A0008DD
:1047440090FAA0F3B3FA83F308B94FF0FF33581C7F
:10475400704710B582B00A2401949DF8104000946B
:10476400FFF726FB02B010BD08B5FFF76DFCC0B221
:1047740008BD08B5FFF71EFCC0B208BD10B590B067
:10478400044600210B910C910D910E910F9128225A
:1047940001A800F015FA012301934FF4803302932A
:1047A400B4F1FF3F0AD0022308934FF480330993F6
:1047B4000A9401A8FCF7A2FD18B1FEE701230893AF
:1047C400F7E70F230B9301230C9300230D930F930F
:1047D4000E93B4F1FF3F04D0B4F5002F07D80223A1
:1047E4000C9302210BA8FCF7C9FF30B1FEE70223AA
:1047F4000C934FF480630E93F3E710B010BD08B52B
:10480400FFF7BCFFFBF796FE08BD000008B5FDF7F7
:104814006BF8094BA3FB00308009FDF7F1FC00B1F4
:10482400FEE70420FDF700FD002211464FF0FF30A3
:10483400FDF7A0FC08BD00BFD34D621008B5FCF71E
:1048440035FDFDF7DBFFFDF705FDFDF7EDFF08BDC9
:104854000268154B9A4200D0704700B587B003F543
:1048640064439A6942F400629A619A6902F40062AC
:104874000092009A9A6942F004029A619B6903F0DB
:1048840004030193019B4FF4807302930223039367
:10489400012304930323059302A90448FDF74AF86E
:1048A40007B05DF804FB00BF002C01400008014084
:1048B40038B50F4C0F4B236000256560A56040F2AE
:1048C4008333E36025612046FBF780FF0A496023B8
:1048D4000B6040F2C1134B6002238B602A462046D2
:1048E400FBF7D8FF29462046FCF74CF838BD00BF3B
:1048F400D0140020002C0140B4140020014B586354
:10490400704700BF002C014010B50E4C0E4B2360C5
:104914004FF4E13363600023A360E36023610C225E
:104924006261A3612046FCF779F92268D36843F0F9
:104934001003D3604FF4806204492046FCF762FC04
:1049440010BD00BFA015002000380140E415002070
:104954000268404B9A4200D07047F0B589B00446D3
:1049640003F558439A6942F480429A619A6902F4C1
:1049740080420092009A9A6942F004029A619A690C
:1049840002F004020192019A9A6942F001029A61CA
:104994009A6902F001020292029A5A6942F00102F3
:1049A4005A615B6903F001030393039B4FF40073A3
:1049B4000493022305930123069303230793264EAE
:1049C40004A93046FCF7B6FF4FF480630493002536
:1049D400059504A93046FCF7ADFF204E204B33600B
:1049E40010237360B5608027F76035617561B56128
:1049F4004FF40053F3613046FDF7D8F866637462F0
:104A0400184E194B33607560B560F7603561756198
:104A1400B561F5613046FDF7C9F8A66374622A46AC
:104A240029460E20FDF7A6FB0E20FDF7DBFB2A46E8
:104A340029460F20FDF79EFB0F20FDF7D3FB2A46E6
:104A440029462520FDF796FB2520FDF7CBFB09B071
:104A5400F0BD00BF00380140000801405C15002093
:104A640044000240181500205800024008B50A46C8
:104A74004FF47A7301460248FCF7FFF808BD00BF03
:104A8400A015002010B50446FBF74EFCC1B2204629
:104A9400FFF7ECFF10BD7047704770477047000088
:104AA40003681A6812F0100F00D1704710B582B075
:104AB400002201921A6801925B680193019BFCF742
:104AC40048F9094B1B685968C1F58061074CC9B2A4
:104AD4002046FFF7CBFF4FF4806221460448FCF7E1
:104AE40091FB02B010BD00BF18150020E415002092
:104AF400A015002008B50248FDF7B4F908BD00BFB1
:104B04001815002008B50248FDF7ACF908BD00BF30
:104B14005C15002010B5044C2046FCF7F9F920463A
:104B2400FFF7BEFF10BD00BFA01500200C480D49C3
:104B34000D4A002302E0D458C4500433C4188C42F4
:104B4400F9D30A4A0A4C002301E013600432A2425A
:104B5400FBD3FBF7EEFC00F00FF8FBF7DEFC70472D
:104B640000000020B40000208C5A0008B40000208B
:104B7400E4190020FEE7000070B500260C4D0D4C32
:104B8400641BA410A64209D100F022F800260A4DA5
:104B94000A4C641BA410A64205D170BD55F8043B11
:104BA40098470136EEE755F8043B98470136F2E79B
:104BB400845A0008845A0008845A0008885A000855
:104BC40003460244934200D1704703F8011BF9E7FE
:104BD400F8B500BFF8BC08BC9E467047F8B500BFE6
:084BE400F8BC08BC9E467047B6
:104BEC00746573745F6C6564310000007465737474
:104BFC005F6C6564320000000000000000000000E3
:104C0C000102030406070809000000000102030466
:104C1C0002030405060708090A0B0C0D0E0F1010F1
:104C2C000000000064657620213D2052545F4E55F3
:104C3C004C4C000072745F6F626A6563745F6765E9
:104C4C00745F7479706528266465762D3E70617288
:104C5C00656E7429203D3D2052545F4F626A656336
:104C6C00745F436C6173735F4465766963650000C0
:104C7C0072745F6F626A6563745F69735F73797373
:104C8C0074656D6F626A65637428266465762D3E63
:104C9C00706172656E74290072745F646576696305
:104CAC00655F7772697465007469646C652564006E
:104CBC0046756E6374696F6E5B25735D20736861F6
:104CCC006C6C206E6F74206265207573656420694E
:104CDC006E204953520A000046756E6374696F6EFC
:104CEC005B25735D3A207363686564756C6572202F
:104CFC006973206E6F7420617661696C61626C659A
:104D0C000A00000046756E6374696F6E5B25735DF7
:104D1C00207368616C6C206E6F74206265207573F3
:104D2C006564206265666F7265207363686564757F
:104D3C006C65722073746172740A00006D75746511
:104D4C007820213D2052545F4E554C4C0000000001
:104D5C0072745F6F626A6563745F6765745F7479A0
:104D6C00706528266D757465782D3E706172656E60
:104D7C00742E706172656E7429203D3D2052545F13
:104D8C004F626A6563745F436C6173735F4D7574D6
:104D9C006578000072745F6F626A6563745F697333
:104DAC005F73797374656D6F626A65637428266DC1
:104DBC00757465782D3E706172656E742E706172BB
:104DCC00656E74290000000072745F6D75746578EF
:104DDC005F72656C656173650000000072745F6DD5
:104DEC00757465785F74616B6500000072745F6D3B
:104DFC00757465785F696E69740000005F69706333
:104E0C005F6C6973745F73757370656E640000001A
:104E1C00284E554C4C2900000A205C207C202F0A7F
:104E2C00000000002D205254202D20202020205442
:104E3C006872656164204F7065726174696E672079
:104E4C0053797374656D0A00202F207C205C202020
:104E5C0020202025642E25642E2564206275696C23
:104E6C00642025732025730A0000000032323A3189
:104E7C00373A3034000000004F6374202031203268
:104E8C00303232002032303036202D203230323267
:104E9C0020436F707972696768742062792052546C
:104EAC002D546872656164207465616D0A000000A0
:104EBC002825732920617373657274696F6E20667F
:104ECC0061696C65642061742066756E6374696FCA
:104EDC006E3A25732C206C696E65206E756D62655B
:104EEC00723A2564200A0000656E645F616C696724
:104EFC006E203E20626567696E5F616C69676E004B
:104F0C0068656170000000006C6576656C203D3D45
:104F1C002052545F454F4B005F686561705F756E42
:104F2C006C6F636B0000000072745F73797374654F
:104F3C006D5F686561705F696E6974003031323322
:104F4C003435363738394142434445460000000079
:104F5C0030313233343536373839616263646566E3
:104F6C00000000002872745F75696E74385F7420DD
:104F7C002A296D656D203E3D206D2D3E6865617062
:104F8C005F707472000000002872745F75696E7433
:104F9C00385F74202A296D656D203C202872745F5F
:104FAC0075696E74385F74202A296D2D3E686561B1
:104FBC00705F656E64000000736D616C6C000000C6
:104FCC006D656D20696E69742C206572726F72202C
:104FDC00626567696E2061646472657373203078F2
:104FEC0025782C20616E6420656E64206164647287
:104FFC0065737320307825780A00000072745F6F37
:10500C00626A6563745F6765745F7479706528267E
:10501C006D2D3E706172656E7429203D3D20525499
:10502C005F4F626A6563745F436C6173735F4D6558
:10503C006D6F72790000000072745F6F626A656355
:10504C00745F69735F73797374656D6F626A65639E
:10505C007428266D2D3E706172656E7429000000F7
:10506C002828736D616C6C5F6D656D2D3E6C66727E
:10507C006565203D3D20736D616C6C5F6D656D2DBC
:10508C003E686561705F656E6429207C7C202821F8
:10509C004D454D5F49535553454428736D616C6CB8
:1050AC005F6D656D2D3E6C66726565292929000062
:1050BC002872745F75626173655F74296D656D200C
:1050CC002B2053495A454F465F5354525543545F16
:1050DC004D454D202B2073697A65203C3D2028726C
:1050EC00745F75626173655F7429736D616C6C5F5D
:1050FC006D656D2D3E686561705F656E64000000C6
:10510C002872745F75626173655F742928287274E4
:10511C005F75696E74385F74202A296D656D202B5C
:10512C002053495A454F465F5354525543545F4D93
:10513C00454D2920252052545F414C49474E5F5321
:10514C00495A45203D3D2030000000002828287297
:10515C00745F75626173655F74296D656D292026B6
:10516C00202852545F414C49474E5F53495A4520C1
:10517C002D20312929203D3D20300000282828727F
:10518C00745F75626173655F7429726D656D29203A
:10519C0026202852545F414C49474E5F53495A458B
:1051AC00202D20312929203D3D203000736D616C6C
:1051BC006C5F6D656D20213D2052545F4E554C4CFB
:1051CC00000000004D454D5F495355534544286D33
:1051DC00656D290072745F6F626A6563745F6765E1
:1051EC00745F747970652826736D616C6C5F6D6586
:1051FC006D2D3E706172656E742E706172656E7489
:10520C0029203D3D2052545F4F626A6563745F43B1
:10521C006C6173735F4D656D6F72790072745F6F43
:10522C00626A6563745F69735F73797374656D6FBC
:10523C00626A6563742826736D616C6C5F6D656D55
:10524C002D3E706172656E742E706172656E74297C
:10525C00000000002872745F75696E74385F7420EA
:10526C002A29726D656D203E3D202872745F756928
:10527C006E74385F74202A29736D616C6C5F6D6578
:10528C006D2D3E686561705F707472202626202833
:10529C0072745F75696E74385F74202A29726D653B
:1052AC006D203C202872745F75696E74385F7420B1
:1052BC002A29736D616C6C5F6D656D2D3E6865613F
:1052CC00705F656E640000004D454D5F504F4F4C54
:1052DC002826736D616C6C5F6D656D2D3E68656124
:1052EC00705F7074725B6D656D2D3E6E6578745D6C
:1052FC0029203D3D20736D616C6C5F6D656D000008
:10530C0072745F736D656D5F667265650000000099
:10531C00706C75675F686F6C6573000072745F7397
:10532C006D656D5F616C6C6F630000006D702021AA
:10533C003D2052545F4E554C4C0000006E616D6523
:10534C0020213D2052545F4E554C4C0073746172B9
:10535C007420213D2052545F4E554C4C00000000EF
:10536C0073697A65203E203020262620626C6F639C
:10537C006B5F73697A65203E20300000626C6F634E
:10538C006B5F636F756E74203E2030202626206282
:10539C006C6F636B5F73697A65203E203000000090
:1053AC0072745F6D705F63726561746500000000FC
:1053BC00696E666F726D6174696F6E20213D20524B
:1053CC00545F4E554C4C00006F626A20213D206F9B
:1053DC00626A6563740000006F626A656374202101
:1053EC003D2052545F4E554C4C00000021286F62FA
:1053FC006A6563742D3E7479706520262052545F63
:10540C004F626A6563745F436C6173735F5374615D
:10541C00746963290000000072745F6F626A6563CF
:10542C00745F6765745F74797065000072745F6F88
:10543C00626A6563745F69735F73797374656D6FAA
:10544C00626A65637400000072745F6F626A656300
:10545C00745F64656C6574650000000072745F6F46
:10546C00626A6563745F616C6C6F63617465000084
:10547C0072745F6F626A6563745F6465746163689C
:10548C000000000072745F6F626A6563745F696E1E
:10549C006974000074687265616420213D20525467
:1054AC005F4E554C4C0000007468726561643A257F
:1054BC007320737461636B206F766572666C6F77A3
:1054CC000A0000007761726E696E673A20257320BE
:1054DC00737461636B20697320636C6F73652074E4
:1054EC006F20656E64206F6620737461636B20613E
:1054FC006464726573732E0A0000000072745F732B
:10550C0063686564756C655F72656D6F76655F74F5
:10551C00687265616400000072745F73636865642F
:10552C00756C655F696E736572745F7468726561C2
:10553C00640000005F72745F7363686564756C650A
:10554C00725F737461636B5F636865636B0000000B
:10555C0074696420213D2052545F4E554C4C000020
:10556C005B452F5349474E5D200000005468652071
:10557C00616C6C6F636174696F6E206F6620736908
:10558C00676E616C20696E666F206E6F6465206655
:10559C0061696C65642E00007369676E616C000054
:1055AC00637265617465206D656D6F727920706FC3
:1055BC006F6C20666F72207369676E616C20696E08
:1055CC00666F206661696C65642E000072745F738F
:1055DC00797374656D5F7369676E616C5F696E6911
:1055EC00740000007072696F72697479203C2052EB
:1055FC00545F5448524541445F5052494F524954AC
:10560C00595F4D4158000000287468726561642D23
:10561C003E7374617420262052545F5448524541A5
:10562C00445F535441545F4D41534B29203D3D2021
:10563C0052545F5448524541445F53555350454E64
:10564C004400000072745F6F626A6563745F676523
:10565C00745F74797065282872745F6F626A656311
:10566C00745F742974687265616429203D3D205211
:10567C00545F4F626A6563745F436C6173735F540C
:10568C006872656164000000737461636B5F7374AE
:10569C0061727420213D2052545F4E554C4C0000D9
:1056AC0072745F6F626A6563745F69735F73797339
:1056BC0074656D6F626A656374282872745F6F62BB
:1056CC006A6563745F74297468726561642900008B
:1056DC0072745F6F626A6563745F69735F73797309
:1056EC0074656D6F626A656374282872745F6F628B
:1056FC006A6563745F742974687265616429203DFE
:10570C003D2052545F46414C53450000746872650D
:10571C006164203D3D2072745F7468726561645FE2
:10572C0073656C6628290000287468726561642DA5
:10573C003E7374617420262052545F544852454184
:10574C00445F535441545F4D41534B29203D3D2000
:10575C0052545F5448524541445F494E49540000ED
:10576C0072745F7468726561645F726573756D6580
:10577C000000000072745F7468726561645F737519
:10578C007370656E6400000072745F74687265619A
:10579C00645F696E6974000072745F74687265612D
:1057AC00645F636F6E74726F6C00000072745F7470
:1057BC0068726561645F736C6565700072745F74A8
:1057CC0068726561645F64656C65746500000000F7
:1057DC0072745F7468726561645F64657461636838
:1057EC000000000072745F7468726561645F7374AA
:1057FC0061727475700000005F7468726561645F3B
:10580C0074696D656F7574005F7468726561645F4F
:10581C00696E69740000000074696D657220213D29
:10582C002052545F4E554C4C0000000074696D655D
:10583C006F757420213D2052545F4E554C4C000026
:10584C0074696D65203C2052545F5449434B5F4D45
:10585C004158202F2032000072745F6F626A6563BA
:10586C00745F6765745F74797065282674696D65FB
:10587C00722D3E706172656E7429203D3D2052542C
:10588C005F4F626A6563745F436C6173735F5469E5
:10589C006D65720072745F6F626A6563745F6973C1
:1058AC005F73797374656D6F626A656374282674AF
:1058BC00696D65722D3E706172656E742900000011
:1058CC00282A2872745F7469636B5F74202A2961BB
:1058DC00726729203C2052545F5449434B5F4D4121
:1058EC0058202F203200000072745F74696D65724D
:1058FC005F636F6E74726F6C0000000072745F7483
:10590C00696D65725F73746F7000000072745F7400
:10591C00696D65725F7374617274000072745F7488
:10592C00696D65725F6465746163680072745F743D
:10593C00696D65725F696E69740000007073723A0C
:10594C00203078253038780A000000007230303A68
:10595C00203078253038780A000000007230313A57
:10596C00203078253038780A000000007230323A46
:10597C00203078253038780A000000007230333A35
:10598C00203078253038780A000000007230343A24
:10599C00203078253038780A000000007230353A13
:1059AC00203078253038780A000000007230363A02
:1059BC00203078253038780A000000007230373AF1
:1059CC00203078253038780A000000007230383AE0
:1059DC00203078253038780A000000007230393ACF
:1059EC00203078253038780A000000007231303AC7
:1059FC00203078253038780A000000007231313AB6
:105A0C00203078253038780A000000007231323AA4
:105A1C00203078253038780A00000000206C723A6B
:105A2C00203078253038780A000000002070633A66
:105A3C00203078253038780A0000000068617264E4
:105A4C00206661756C74206F6E2074687265616479
:105A5C003A2025730D0A0D0A00000000686172647B
:105A6C00206661756C74206F6E2068616E646C6565
:085A7C00720D0A0D0A00000082
:045A8400090200080B
:045A8800E50100082C
:105A8C000024F40001000000100000000C000020B5
:105A9C000C0000200100000018000020180000205D
:105AAC0094000000020000002800002028000020C4
:105ABC002000000003000000380000203800002007
